:020000040800F2
:10000000201800204501000879310008592B00080C
:100010000D3100080D0B00086536000800000000D7
:100020000000000000000000000000006332000833
:10003000C70D0008000000006132000865320008AA
:100040005F0100085F0100085F0100085F01000810
:100050005F0100085F0100085F0100085F01000800
:100060005F0100085F0100085F010008990B0008AC
:100070005F0100085F0100085F0100085F010008E0
:100080005F0100085F0100085F0100085F010008D0
:100090005F0100085F0100085F0100085F010008C0
:1000A0005F010008E53200085F0100085F010008F9
:1000B0005F010008F13200085F0100085F010008DD
:1000C0005F0100085F0100085F0100085F01000890
:1000D0005F0100085F0100085F0100085F01000880
:1000E0005F0100085F0100085F0100085F01000870
:1000F0005F0100085F0100085F0100085F01000860
:100100005F0100085F0100085F0100085F0100084F
:100110005F0100085F0100085F0100085F0100083F
:100120005F0100085F0100085F0100085F0100082F
:10013000DFF80CD000F00AFC0048004755370008F3
:10014000201800200648804706480047FEE7FEE7E3
:10015000FEE7FEE7FEE7FEE7FEE7FEE7FEE7FEE777
:10016000E332000831010008202A04DB203A21FA9A
:1001700002F00021704721FA02F3D040C2F12002C0
:100180009140084319467047D2B201E000F8012BB4
:10019000491EFBD270470022F6E710B513460A4607
:1001A00004461946FFF7F0FF204610BDF0B480EA80
:1001B0000102D40F4200B2EB410F02D202460846C0
:1001C00011464A0042D0C30DDDB2C1F3C752AD1A89
:1001D000202D35DAC1F3160141F4000204B1524278
:1001E000C5F1200602FA06F12A411044B3EBD05FB4
:1001F00023D0C4B1012DA0EBC35009DCF0BC4FF0FB
:10020000004202EAC352DBB200F5000000F012BB6C
:10021000400000F1807000EBC350A0F1807040EA14
:10022000D170490009E0490841EAC071A0EBC35010
:1002300000F50000400800EBC350F0BC00F0F1BA3C
:100240006142012202EB4101001BF6E7F0BC70475E
:1002500081F00041AAE780F00040A7E780EA0102B0
:1002600010B502F00043400022D04A001FD0010E1A
:1002700001EB1261C0F35600C2F3560240F40000D5
:1002800042F40002A0FB022000047F39140400D0D5
:10029000401C50EA124001D44000491EC2B20C0674
:1002A00004EBD010401C4008802A02D003E000205C
:1002B00010BD20F00100002900DA0020184310BD15
:1002C00030B480EA010202F0004530F0004221F033
:1002D000004013D090B1C30DD40DC2F31601C0F38A
:1002E0001600E41A41F4000140F400027D3491420A
:1002F00001D3641C00E04900002C02DA30BC00206D
:1003000070474FF400000023914201D3891A034340
:1003100040084FEA4101F7D151B1914202D14FF06B
:10032000004105E002D24FF0010101E06FF0010150
:1003300003EBC450284430BC00F073BA2DE9FE4FE3
:10034000804681EA0300C00F0C46009021F0004176
:1003500023F00045B8EB0200A94105D240462146F2
:1003600090461C460B46024623F00040104347D0FF
:10037000270DC7F30A00C3F30A510290401A0190F7
:1003800040286BDAC3F3130040F4801B00989246B8
:1003900020B10023D2EB030A63EB0B0B0198594603
:1003A000C0F14002504600F01BFA06460D4650468A
:1003B0005946019A00F023FA10EB0800614100242D
:1003C00087EA115284EAE7731A4340D0009A62B375
:1003D000019A012A4FEA075215DC001B61EB02016A
:1003E0004FF0004202EA0752CDE90042001C41F5FD
:1003F000801132462B4600F05AFA03B0BDE8F08F68
:1004000040462146F9E7001B61EB0201001C41F563
:10041000801300185B412018A2F5001747EB030179
:1004200040EAD570B6196D4111E06D084FEA360605
:1004300045EAC0754FEA0752001B61EB0201001C40
:1004400041F5801149084FEA300000195141324608
:100450002B4603B0BDE8F04F00F01ABA0098012215
:1004600040000023D0EB020263EBE07300982146CA
:100470004FEAE074B8EB000061EB0401E9E783F0B8
:1004800000435BE781F0004158E72DE9FE4F81EA28
:10049000030404F0004421F0004100944FF0000BED
:1004A00023F0004350EA01045ED052EA03045BD01B
:1004B000C3F30A54C1F30A552C44A4F2F334019453
:1004C000A0FB0254C1F3130141F48011C3F31303E1
:1004D00043F4801301FB024400FB034E840A970A95
:1004E00044EA815447EA8357A4FB076802958D0AC2
:1004F00005FB07854FEA932C04FB0C542705029D4E
:100500004FEA065847EA1637B5EB08056EEB070CBD
:10051000870E920E47EA811742EA8312A7FB020177
:10052000B6EB0B0164EB00042B0D43EA0C335E18B1
:1005300044EB1C50DA465146E7FB0201C5F31304B5
:100540004FEA0B3343EA14534FEA0432019C43EA67
:100550000603A4F10C040294009CCDE900B400F061
:10056000A6F903B0BDE8F08F00200146F9E72DE9B8
:10057000F04D81EA030404F0004B21F000451446DD
:100580004FF0000A23F0004150EA050220D054EA5F
:1005900001021DD0C5F30A570246C5F31303C1F388
:1005A0001300C1F30A5640F4801543F48013A7EBFF
:1005B0000608101BD64608F2FD3873EB050002D37F
:1005C00008F1010801E092185B41B8F1000F03DA6D
:1005D00000200146BDE8F08D00204FF48011064652
:1005E00084460EE0171B73EB050705D3121B63EB64
:1005F000050306434CEA010C49084FEA3000921803
:100600005B4150EA0107EDD152EA030012D082EAC1
:10061000040083EA0501084305D0101BAB4106D254
:100620000122002306E000224FF0004302E06FF0B9
:10063000010253101AEB06004CEB085110EB0A00B4
:1006400041EB0B01BDE8F04D00F022B970B521F08F
:10065000004303430CD0C1F30A550024D5EB040535
:1006600064EB0403D617AD1AB34102DB0020014648
:1006700070BD201841EB025170BDC10F80EAE070DF
:100680000844CA079623002100F0D4B80EB5C10F64
:1006900080EAE0700844CA07002140F233438DE845
:1006A0000E000A460B4600F002F903B000BD0EB57D
:1006B00040F2334102910021CDE900110A460B4678
:1006C00000F0F5F803B000BDC1F30A5210B5C1F354
:1006D000130140F2FF3341F480119A4201DA002005
:1006E00010BD40F233439A42A2F2334203DC52423D
:1006F000FFF73AFD10BD904010BD00F0004230F011
:1007000000400AD0C10D01F56071C0F3160042EA45
:100710000151C2084007114370470020014670474D
:1007200030B5041E71F1000404DB4FF00044404278
:1007300064EB0101141E73F1000405DB1C464FF04D
:100740000043524263EB04038B4208BF824230BD38
:1007500030B5041E71F1000404DB4FF00044404248
:1007600064EB0101141E73F1000405DB1C464FF01D
:100770000043524263EB0403994208BF904230BDEC
:1007800001F0004330B421F0004150EA010206D0EC
:100790000A0DA2F56072C1F31301002A02DC30BC1D
:1007A00000207047440F44EAC104C100E01830BC87
:1007B00000EBC25000F035B8002801DBC0F100406A
:1007C000002901DBC1F1004181427047002801DBB3
:1007D000C0F10040002901DBC1F1004188427047AF
:1007E000202A04DB203A00FA02F1002070479140F1
:1007F000C2F1200320FA03F3194390407047202AE6
:1008000006DBCB17203A41FA02F043EAE07306E038
:1008100041FA02F3D040C2F1200291400843194648
:1008200070470029A8BF7047401C490008BF20F04E
:100830000100704710B4B0FA80FC00FA0CF050EAE6
:10084000010404BF10BC704749B1CCF1200421FA67
:1008500004F411FA0CF118BF012121430843A3EB62
:100860000C01CB1D4FEA00614FEA102042BF00206F
:1008700010BC704700EBC35010440029A4BF10BC4B
:100880007047401C490008BF20F0010010BC7047B1
:1008900010B5141E73F1000408DA401C41F1000188
:1008A00092185B411A4301D120F0010010BD2DE9DF
:1008B000F04D92469B4611B1B1FA81F202E0B0FAD6
:1008C00080F220329046FFF78BFF04460F4640EA45
:1008D0000A0041EA0B0153465A46084313D0114619
:1008E00053EA010019D0C8F140025046FFF73CFC22
:1008F00005460E46504659464246FFF771FF0843EB
:1009000005D0012004E020463946BDE8F08D0020E6
:10091000054346EAE0762C4337430A986305E40A28
:10092000A0EB08000022FD0A44EA47540A3002D531
:1009300000200146E9E7010510196941DDE9084594
:1009400000196941BDE8F04DA2E70000064C074DD3
:1009500006E0E06840F0010394E80700984710348F
:10096000AC42F6D3FFF7E8FB64380008843800088F
:1009700070B58C1810F8015B15F0070301D110F861
:10098000013B2A1106D110F8012B03E010F8016B8E
:1009900001F8016B5B1EF9D12B0705D40023521E11
:1009A0000DD401F8013BFAE710F8013BCB1A921C79
:1009B00003E013F8015B01F8015B521EF9D5A14277
:1009C000D8D3002070BD000070B50446006881686F
:1009D000C943C90717D1816821F00101816000F086
:1009E000E9FE05460AE000BF00F0E4FE401B0228D5
:1009F00004D920688068C043C00706D0206880689A
:100A0000C043C007F0D0002070BDA06A40F01000C5
:100A1000A062E06A40F00100E062012070BD10B504
:100A20000146406A826A12F0500F05D0006A026BDC
:100A3000BDE8104008461047816A41F400718162A8
:100A400001688968C1F3424107290CD1017B51B982
:100A5000816A21F480718162816AC90403D4816A48
:100A600041F00101816200F09BFA10BD10B5406AAF
:100A7000816A41F040018162C16A41F00401C162B2
:100A800000F090FA10BD10B5406A00F08AFA10BD6F
:100A9000F8B500260446009600688168C943C90776
:100AA0002DD0816841F00101816016481649006827
:100AB000B0FBF1F000E0401E00900028FBD100F0F8
:100AC00079FE054616E000BF00F074FE401B0228C8
:100AD00010D920688068C043C0070BD0A06A40F0DE
:100AE0001000A062E06A40F00100E06284F8246037
:100AF0000120F8BD20688068C043C007E4D1002011
:100B0000F8BD0000E001002040420F00FEE710B5F4
:100B10000446D4E90001FFF79BFBE168FFF79EFB69
:100B2000E061616AA068FFF747FE07D1E1692069CB
:100B3000FFF794FBA16AFFF739FB00E0A06A20628F
:100B4000A062E26901461046FFF730FB606261690E
:100B5000FFF73CFE01D2606900E0606AA060A16915
:100B6000FFF72AFE01D2A06900E0A068A06010BDD6
:100B700000210160416081604FF07E52C160C0E998
:100B80000412044AC0E90621016241628162C16225
:100B900070470000000080BF2DE9F05F6A4800F058
:100BA00061FB6A4E3078C0077ED069480068FFF765
:100BB0007EFD4FF06632674BFFF767FC6FF00B026C
:100BC000FFF744FD644A654BFFF759FCFFF7D8FD7A
:100BD00002F09EFA634C624DDFF88CE1216801223D
:100BE000624B45F821004FF0C80A4FF00009B0F5FC
:100BF000000F15DB01F1C707B7FBFAF80AFB1877FE
:100C000055F8277017F1FF4F0AD3594FDEF800C08F
:100C1000C7F800C0574F39602860C4F800901A60C8
:100C200032701868DFF850819B4601287DD150480A
:100C3000DEF800100068081AC830B0FBFAF20AFBB0
:100C400012004E4931F81000A0F56160FFF71EFD5B
:100C500000224B4BFFF78BFC4A4BD3E90023FFF7F5
:100C600014FCFFF78DFD20F000474748076020681F
:100C700055F8200020F00040FFF73FFD434A45466D
:100C8000C2E90001C8F80070FFF77AFD68604046CD
:100C9000FFF73DFFA868FFF730FD2F4A3C4B52425B
:100CA000FFF7F3FB054600E048E0DFF8E8A00F4659
:100CB000DAF80000FFF721FD2A463B46FFF73EFB2E
:100CC00000221346FFF744FD2FD8D8F80800FFF79D
:100CD00014FD214A2E4B5242FFF7D7FB05460F4623
:100CE000DAF80000FFF709FD2A463B46FFF726FB2E
:100CF0000022294BFFF714FD17D8D8F80800FFF79A
:100D0000FCFC154A224B5242FFF7BFFB05460F463B
:100D1000D046DAF80000FFF7F0FC2A463B46FFF722
:100D20000DFBFFF72DFDC8F800002068401C206077
:100D3000C72803D9C4F80090CBF800903078401C45
:100D40003070BDE8F09F00006C120020D001002040
:100D50002000002066660A4085EB51B81E85F93FE9
:100D60000C020020B801002010000020C401002067
:100D7000BC010020C00100200C120020280000202F
:100D80000020AC40180000200C000020C80100200A
:100D9000E17A743F080000200000F03F30B590F881
:100DA00040500124AC40C56B6C60046863604368CC
:100DB000102B036803D099600068C26030BD9A6050
:100DC0000068C16030BD704772B6FEE7F8B5002517
:100DD0000446009590F82400012808D0012084F8EA
:100DE00024002046FFF7F0FD060002D053E0022069
:100DF000F8BDA06A20F4885040F00200A0620220F2
:100E000000F000FF26490968B1FBF0F0400000E067
:100E1000401E00900028FBD12046FFF739FE2068D5
:100E2000816841F00801816000F0C4FC074608E0D9
:100E300000F0C0FCC01B0A2803D9206880680007A6
:100E400015D4206880680007F2D42068816841F0DA
:100E50000401816000F0AEFC074612E000F0AAFC3D
:100E6000C01B0A280DD920688068400709D5A06AF0
:100E700020F0020040F01000A06284F8245001200D
:100E8000F8BD206880684007E8D4A06A20F002001E
:100E900040F00100A06284F824503046F8BD000004
:100EA000E0010020F8B50024009490F824202546A5
:100EB000012A12D0012280F824204A681F23072A21
:100EC0000DD20668776B521E02EB820293409F435D
:100ED0000B6893401F43776319E00220F8BD066852
:100EE0000D2A0AD2376BD21F02EB820293409F4336
:100EF0000B6893401F43376309E0F76A0D3A02EB32
:100F0000820293409F430B6893401F43F7620A6835
:100F1000072306680A2A0AD3F7680A3A02EB420254
:100F200093409F438B6893401F43F76008E0376905
:100F300002EB420293409F438B6893401F4337610B
:100F40000A68102A01D0112A20D1124B02689A4255
:100F500017D193681B0219D4936843F4000393607C
:100F60000968102912D10C490C4A0968B1FBF2F149
:100F700001EB8101490000E0491E00910029FBD1ED
:100F800004E0816A41F020018162012480F824504C
:100F90002046F8BD00240140E001002040420F003F
:100FA00070477047704700002DE9F04104004FF092
:100FB00000057FD0A06A002628B9E66284F8246084
:100FC000204600F081F82046FFF7FEFCA16AC90622
:100FD00000D420B1A06A40F01000A0626AE0A16ACB
:100FE00021F4885141F00201A162334923688B4208
:100FF000E16904D1B1F5402F01D14FF40021277BE5
:101000004FF4807C41EA470261680A43A168614568
:1010100008D0012906D0002194F814E0BEF1010F98
:1010200002D00AE06146F7E7C7B1A76A47F0200798
:10103000A762E76A47F00107E7625F6827F469473C
:101040000F435F60236899681C4F394011439960D2
:10105000A16861450BD0012909D00CE0DFF860E000
:10106000A7690EEB47370F4347F40061E5E7218A94
:101070000D05A5F580152168CB6A23F470032B4379
:10108000CB62216889680F4B1940914208D1E66212
:10109000A16A21F0020141F00101A162BDE8F081E5
:1010A000A06A20F0020040F01000A062E06A40F068
:1010B0000100E0620120F1E7003C0140FDF7E1FFA3
:1010C00000E0FFFFFE0E1FFF70B586B0002506464C
:1010D000009501950295039500681A4988422ED122
:1010E0001949886940F400708861886900F40070CB
:1010F0000490886940F0040088618869694600F0BE
:101100000400049060200090032001900F4800F03C
:1011100043FA104C0E48C4E900058020C4E902508F
:1011200080002061800060612020C4E9060520461F
:1011300000F0BCF908B1FFF747FE3462666206B002
:1011400070BD000000240140001002400008014072
:10115000080002406C1200202DE9F0478946044641
:101160003B4900683B4F0E1D9046884201D0B84273
:1011700007D1306810F4702F03D001252846BDE850
:10118000F08794F8240001280CD0012084F8240072
:101190002046FFF77DFC05004FF0000004D084F8E6
:1011A0002400EBE70220EAE7A16A40F601629143DE
:1011B00041F48071A1622168B94218D1326812F4F9
:1011C000702F14D0A16A41F48011A16231684905E1
:1011D00005D5A16A21F4005141F48051A162A16AB0
:1011E000C9040AD5E16A21F00601E16206E0A26ABB
:1011F00022F48012A2624968E9E7E06284F82400E0
:10120000216A15488862216A1448C862216A144814
:10121000086321686FF0020008602068816841F46B
:1012200080718160216843464A464C31206A00F053
:101230007BF920688168C1F342410729816803D0A6
:1012400041F48011816099E741F4A001FAE70000C0
:1012500000240140002801401F0A0008870A0008F6
:101260006D0A00082DE9F05FC16B0A6801680B6820
:10127000046C4FF0040808FA04F8844D844E854F3E
:10128000DFF814C2DFF81492DFF814A2DFF814B20A
:10129000DFF814E218EA020F65D05FEA437862D5FE
:1012A0000A68920603D40A6822F004020A60DFF892
:1012B000F0814FF48062016808F1140813011402F0
:1012C000414524D9A9420DD0B1420FD0B9421AD01C
:1012D000614515D0494515D0514501D1120312E0A1
:1012E000594501D104220EE0714501D140220AE0A6
:1012F0006D4D1435A94206D06B4A2832914201D176
:101300001A4600E022466749091F0A6029E0A942FF
:1013100013D0B14215D0B94220D061451BD0494508
:101320001BD0514502D14FF4800217E0414502D154
:101330004FF0806212E0594501D104220EE0714560
:1013400001D140220AE0584D1435A94206D0564A30
:101350002832914201D11A4600E022464B49083911
:101360004A60C16A71E04FF0020808FA04F818EA0E
:10137000020F70D05FEA83786DD50A68920606D4B2
:101380000A6822F00A020A60012180F82110DFF8C1
:1013900010814FF40072016808F11408130114025F
:1013A000414524D9A9420DD0B1420FD0B9421AD03B
:1013B000614515D0494515D0514501D1120312E0C0
:1013C000594501D102220EE0714501D120220AE0E7
:1013D000354D1435A94206D0334A2832914201D105
:1013E0001A4600E022462F49091F0A6029E0A94257
:1013F00013D0B14215D0B94220D061451BD0494528
:101400001BD0514502D14FF4001217E0414502D1E3
:101410004FF0007212E0594501D102220EE07145F1
:1014200001D120220AE0204D1435A94206D01E4ADF
:101430002832914201D11A4600E022461349083968
:101440004A60002180F82010816A00291CD0BDE884
:10145000F05F0847FFE70825A540154214D01A079A
:1014600012D50A6822F00E020A6090F84020C36B81
:10147000012101FA02F25A60816380F821100021F3
:1014800080F82010016BE0E7BDE8F09F0800024003
:101490001C0002403000024044000240580002405C
:1014A0006C000240080402401C04024030B560B1E8
:1014B0001A4B026814219A4209D2194B1344B3FB08
:1014C000F1F18900016417490AE0012030BD134B96
:1014D0005B421344B3FBF1F1890001640F49083901
:1014E000C163022180F82110136843F6F0718B4329
:1014F000F0E901142143D0E902452C43214304695A
:101500002143446921438469214319431160002127
:101510004163012242770177084630BD080402404A
:10152000F8FFFDBF0000024070B5044690F82000AF
:10153000002501280CD0012084F8200094F82160B7
:101540000020012E06D084F820000225284670BD18
:10155000022070BD022684F82160A063206806681E
:1015600026F0010606602046FFF718FCE06A002816
:101570002068016802D041F00E0106E021F004016C
:1015800001602068016841F00A010160206801687B
:1015900041F001010160D9E72DE9F84FDFF8C8916A
:1015A000002409F1040A0AF1040B23460F270BF16A
:1015B000040ED1E00125A54006EA0502AA4276D133
:1015C000DFF8A8C14E68A6EB0C0866452BD00DDCF1
:1015D000032E34D005DC36B3012E19D0022E2FD1C4
:1015E0001BE0112E16D0122E2AD119E0B8F5881F53
:1015F00019D006DCB8F5803F15D0B8F5801F1FD193
:1016000011E0B8F5001F0ED0B8F5041F18D10AE09C
:10161000CB6815E0CB681B1D12E0CB6808330FE0E8
:10162000CB680C330CE08B682BB1012B4FF0080317
:1016300003D0456104E0042302E0056100E00023DB
:10164000FF2A01D8064601E000F104064FEA8405AE
:1016500001D9A5F12005D6F8008007FA05FC28EA93
:101660000C0803FA05F548EA0508C6F800804D683D
:10167000ED0070D53E4DAE6946F00106AE61AD6934
:1016800024F0030605F0010500953A4D06EB050C24
:10169000DCF80850A607360F07FA06F825EA080511
:1016A000DFF8D480404503D14FF0000825E052E038
:1016B000DFF8C880404502D14FF001081DE0DFF897
:1016C000C080404502D14FF0020816E0DFF8B48038
:1016D000404502D14FF003080FE0DFF8AC804045F1
:1016E00002D14FF0040808E0DFF8A080404502D1A5
:1016F0004FF0050801E04FF0060808FA06F848EA3E
:101700000508CCF808804D68D9F80060ED034D4617
:1017100001D5164300E096432E604D68DAF800606C
:10172000AD03554601D5164300E096432E604D6843
:10173000DBF80060ED025D4601D5164300E09643FC
:101740002E604D68DEF80060AD02754601D5164387
:1017500000E096432E60641C0A681646E2407FF45F
:1017600029AFBDE8F88F000000040140000011100F
:10177000001002400000014000080140000C014040
:10178000001001400014014000180140001C0140FD
:101790008068084000D001207047C26821EA020337
:1017A0000A4043EA0241016170470AB10161704792
:1017B0000904FBE70148806870470000D40100205D
:1017C00070B5040025D094F83D00002520B984F8B8
:1017D0003C50204600F04EF9242084F83D0020685B
:1017E000016821F0010101602068016841F40041B5
:1017F00001602068016821F40041016000F078FB7D
:101800004D4A6168914201D84C4900E04C498842F8
:1018100001D2012070BD4B492368B0FBF1F15E6835
:1018200026F03F060E435E606368934206D94FF48C
:10183000967359434FF47A73B1FBF3F12368491C53
:101840001E6A26F03F06314319626168914210D842
:101850004900401EB0FBF1F2521CC2F30B02042AF5
:1018600001D2042022E0B0FBF1F0401CC0F30B00D9
:101870001CE0A268F2B301EBC10303EB0116431EA7
:10188000B3FBF6F35B1C43F480431B0549D092B3D2
:1018900001EBC10202EB0111401EB0FBF1F0401C54
:1018A000C0F30B0040F4804040F400402168CA6956
:1018B0004CF6FF739A431043C861D4E90710014303
:1018C0002068026822F0C00211430160D4E90301DC
:1018D00001432068826848F2FF339A4311438160D4
:1018E000D4E9050108432168CA6822F0FF021043C9
:1018F000C86001E00EE016E02068016841F00101D7
:1019000001602564202084F83D00256384F83E5062
:10191000002070BD01EB4106431EB3FBF6F35B1CD8
:10192000B3E70120C2E701EB4101401EB0FBF1F03B
:10193000401CC0F30B00B7E7A086010080841E00A6
:1019400000093D0040420F002DE9F84F1F46904628
:101950008A460446DDF82890FFF72CFF054694F8E8
:101960003D0020287FD119230122404920460095BF
:1019700001F07EF9002876D194F83C00012872D05D
:10198000012084F83C0020680168C90703D1016880
:1019900041F0010101602068016821F400610160EB
:1019A000212084F83D00102084F83E0000262664A3
:1019B000C4F824806785608D20852D48E0622B4621
:1019C0004A465146204601F0DFF890B92068416947
:1019D0008069009036E02A464946204601F0C7F962
:1019E00050B1206C042804D12068016841F40071D2
:1019F00001600120BDE8F88F606A21680078086105
:101A0000606A401C6062618D491E6185218D491E9E
:101A100089B2218522685369DB435B070BD451B13E
:101A200000781061606A401C6062608D401E6085B5
:101A3000208D401E20852A464946204601F0F2F8B6
:101A40000028CED1208D0028C5D154F83D0B016867
:101A500041F400710160202004F81E09E6776677E2
:101A60000020C7E7FFE70220C4E7000002001000E3
:101A70000000FFFF10B586B0002100910191029196
:101A800003910068104988421BD1104CA06940F0B6
:101A90000800A061A069694600F0080004904FF4B6
:101AA0004060009012200190032003900848FFF747
:101AB00073FDE06940F48000E061E06900F48000BB
:101AC000049006B010BD0000005800400010024015
:101AD000000C01400248816802781144816070471F
:101AE000D4010020074810B5016841F010010160E1
:101AF000032000F075F80F2000F006F800F024F83D
:101B0000002010BD0020024070B50D4D04464FF47A
:101B10007A712878B1FBF0F00A490968B1FBF0F05E
:101B200000F0CCFB48B9102C07D200222146501EF1
:101B300000F036F800206C6070BD012070BD000020
:101B4000D4010020E00100200C4808B5816941F073
:101B500001018161816901F001010091C16941F0D8
:101B60008051C161C06900F0805000900448416814
:101B700021F0E06141F00071416008BD00100240B9
:101B800000000140002809DB00F01F020121914004
:101B90004009800000F1E020C0F80011704700000B
:101BA000F0B40E4B1B680C46C3F30223C3F10705C8
:101BB000042D00D90425191D072901D2002300E0B6
:101BC000DB1E012606FA05F1491E214099409E4080
:101BD000761E16403143F0BC01F045BD0CED00E02F
:101BE000064900F0070208684FF6FF03184040EA74
:101BF0000220034A10430860704700000CED00E02B
:101C00000000FA0510B52CA401461DCC86B08DE865
:101C10001D002DA02D4C00680490002004292FD019
:101C20000BDC01292FD0022928D100F071F961685D
:101C3000C1F38131491C49001EE0082920D0102938
:101C40001CD161682268D20118D5C1F38342C9034F
:101C50001DF8020009D5616804AAC1F34041515C36
:101C60001B4AB2FBF1F1484301E01A49484361685D
:101C7000490203D440000321B0FBF1F006B010BDCF
:101C800000F056F9FAE7226AC2F30121012903D1D3
:101C9000920701D5C803F1E7022905D1626A9207CC
:101CA00002D549F64040E9E70329E7D121688903D5
:101CB000E4D54FF22440E1E70203040506070809D2
:101CC0000A0B0C0D0E0F1010010200000010024054
:101CD00000127A0000093D002DE9F843054600781E
:101CE000354CC00754D0E0690026C00008D4E06934
:101CF00040F08050E061E069012600F080500090E3
:101D00002E480168C90512D40168804641F48071EB
:101D10000160FFF74FFD074605E000BFFFF74AFDF2
:101D2000C01B642823D8D8F80000C005F6D5206A67
:101D300010F4407021D0A98801F4407181421CD078
:101D4000206A1F49012220F440700A6000220A60C4
:101D50002062C00711D0FFF72DFD074641F28838F9
:101D600008E000BFFFF726FDC11B414502D9032053
:101D7000BDE8F883206A8007F4D5206A696820F4FA
:101D80004070084320621EB1E06920F08050E0619D
:101D90002878800705D56068A96820F4404008438A
:101DA00060602878C00605D56068696920F4800005
:101DB000084360600020DBE7001002400070004034
:101DC000400442422DE9F0470F46050061D0434EE2
:101DD000306800F00700B84209D2306820F00700F0
:101DE00038433060306800F00700B84251D12868AD
:101DF0003B4C810712D5400703D5606840F4E06092
:101E000060602878000703D5606840F46050606027
:101E10006068A96820F0F000084360602878C00777
:101E200028D06868012810D02168022810D08907BE
:101E300000292EDA616821F0030101436160FFF798
:101E4000B9FC804641F288390DE021688903EFE74B
:101E50008901EDE7FFF7AEFCA0EB0801494502D987
:101E60000320BDE8F0876068696800F00C00B0EB03
:101E7000810FEFD1306800F00700B8420BD930680D
:101E800020F0070038433060306800F00700B842A7
:101E900001D00120E5E72878400705D56068E968AA
:101EA00020F4E060084360602878000706D5606889
:101EB000296920F4605040EAC100606000F038F801
:101EC0006168084AC1F30311515CC84006490860C3
:101ED00006480068FFF718FE0020C2E70020024015
:101EE000001002404C380008E0010020D80100201A
:101EF0000448054900684968044AC1F30221515C5D
:101F0000C8407047E0010020001002405C38000823
:101F10000448054900684968044AC1F3C221515C7C
:101F2000C8407047E0010020001002405C38000803
:101F300012A185B00FC98DE80F0014A0144A0068E3
:101F400004905168134801F00C03042B10D0082BA7
:101F50000ED1C1F38343C9031DF803000AD55168AC
:101F600004AAC1F34041515C0A4A5043B0FBF1F06E
:101F700005B0704708494843FAE70000020304052A
:101F8000060708090A0B0C0D0E0F101001020000C5
:101F90000010024000127A0000093D002DE9F84FC0
:101FA000040070D02078C04DC00749D06868C0F3E5
:101FB0008100012807D06868C0F38100022809D198
:101FC0006868C00306D52868800339D56068002892
:101FD000E7D035E06068B0F5803F0BD010B1B0F5C8
:101FE000A02F11D0286820F480302860286820F4C1
:101FF000802002E0286840F480302860606890B15A
:10200000FFF7D8FB06460AE0286840F480202860E5
:10201000F0E700BFFFF7CEFB801B642873D8286869
:102020008003F7D50CE0FFF7C5FB064605E000BFCF
:10203000FFF7C0FB801B6428F0D828688003F7D422
:1020400020789A4E80074FF001094FF0000839D5EB
:10205000686810F00C0F07D06868C0F38100022890
:1020600009D16868C00306D42868800714D52069A0
:10207000012808D110E02069B0B1C6F80090FFF740
:1020800099FB074605E00AE1FFF794FBC01B022815
:10209000C4D828688007F7D52868616920F0F8005F
:1020A00040EAC10028600DE0C6F80080FFF782FB1F
:1020B000074604E0FFF77EFBC01B022823D82868F0
:1020C0008007F7D4207800072CD57948A169D9B1C9
:1020D000C0F80090FFF76EFB074604E0FFF76AFBCD
:1020E000C01B02280FD8686A8007F7D571484FF4E3
:1020F000FA510068B0FBF1F0009000BF0098411E5B
:102100000091FAD20EE080E0C0F80080FFF752FBA9
:10211000074604E0FFF74EFBC01B022875D8686A2B
:102120008007F7D42078400760D5E8690027C00011
:1021300008D4E86940F08050E861E869012700F0C0
:10214000805000905C480168C90513D4016883463B
:1021500041F480710160FFF72DFB824606E000BF6D
:10216000FFF728FBA0EB0A0064284ED8DBF800003C
:10217000C005F5D5E06801280AD008B1052813D0BC
:10218000286A20F001002862286A20F0040002E09A
:10219000286A40F001002862E06841F2883B98B16B
:1021A000FFF708FB82460BE0286A40F00400286233
:1021B000EEE700BFFFF7FEFAA0EB0A0159455AD837
:1021C000286A8007F6D50CE0FFF7F4FA824605E0AE
:1021D000FFF7F0FAA0EB0A0159454CD8286A8007AE
:1021E000F6D41FB1E86920F08050E861E06988B357
:1021F0006968C1F38101022944D00228C6F86080D1
:1022000004D0FFF7D7FA044638E034E0FFF7D2FAFB
:10221000074604E0FFF7CEFAC01B02282BD8286837
:102220008001F7D4206AB0F5803F05D16868A168C5
:1022300020F4003008436860D4E908010843696865
:1022400021F4741108436860C6F86090FFF7B2FA91
:10225000044606E025E000BFFFF7ACFA001B0228A9
:1022600009D828688001F7D51BE000BFFFF7A2FA64
:10227000001B022802D90320BDE8F88F28688001DE
:10228000F4D40EE00128F7D06868226A00F48031A7
:10229000914204D1616A00F47010884201D001209B
:1022A000EAE70020E8E70000001002400000424298
:1022B00080044242E00100200070004010B5401E42
:1022C000B0F1807F01D3012010BD4FF0E0246061A8
:1022D0000F21601701F0C7F90020A06107202061DD
:1022E000002010BD7047704710B590F83C20012ABF
:1022F00022D0012280F83C20CA688C6822F4407207
:1023000022434C6822F4806222430C6822F400626B
:1023100022430C6922F4805222434C6922F4005279
:102320002243C969002322F480420A4301684A64B7
:1023300080F83C30002010BD022010BD70B590F830
:102340003C20012A2CD0012480F83C40022280F855
:102350003D2003685A689D6822F070060A6832437F
:102360005A60104B02689A420ED00F4B9A420BD023
:10237000B2F1804F08D00D4B9A4205D00C4B9A42D7
:1023800002D00C4B9A4204D1496825F080031943CE
:10239000916080F83D40002180F83C10084670BDF7
:1023A000022070BD002C01400034014000040040B8
:1023B00000080040000C004010B50446022249B15C
:1023C00004290ED0082913D094F84500012816D00E
:1023D000012010BD94F842000128F9D184F8422070
:1023E0000FE094F843000128F2D184F8432008E07C
:1023F00094F844000128EBD184F8442001E084F8EB
:1024000045200422206800F0CCFF2068416C41F494
:10241000004141640E49206888420ED00D4988422F
:102420000BD0B0F1804F08D00B49884205D00B4942
:10243000884202D00A49884204D1816801F007012C
:10244000062903D0016841F001010160002010BDA0
:10245000002C01400034014000040040000800400E
:10246000000C004010B5040003D094F83D0010B1FA
:1024700007E0012010BD002084F83C00204600F059
:102480001FF8022084F83D00211D206800F036FF6F
:10249000012084F8460084F83E0084F83F0084F868
:1024A000400084F8410084F8420084F8430084F836
:1024B000440084F8450084F83D00002010BD000071
:1024C00008B5154A0168154891420ED1816941F459
:1024D000006181618069002200F400600090114673
:1024E0001920FFF75DFB192010E00D4A914211D130
:1024F000C16941F00201C161C069002200F002001F
:10250000009002211D20FFF74BFB1D20BDE8084075
:10251000FFF738BB08BD0000002C0140001002404E
:102520000004004090F83D10012901D001207047BF
:10253000022180F83D100168CA6842F00102CA60B9
:1025400000680E4988420ED00D4988420BD0B0F188
:10255000804F08D00B49884205D00B49884202D0F1
:102560000A49884204D1816801F00701062903D095
:10257000016841F00101016000207047002C01401A
:10258000003401400004004000080040000C0040FE
:1025900070B5044690F83C00012817D0012584F856
:1025A0003C50022084F83D002068826822F07702C7
:1025B00022F47F4282600868502830D00DDC202849
:1025C0004DD005DC98B310283BD148E0022070BD07
:1025D000302844D0402834D139E0602828D07028F1
:1025E00006D0B0F5805F2CD0B0F5005F29D10AE0AD
:1025F000CB68D1E90121206800F0E0FE2068816805
:1026000041F0770109E0CB68D1E90121206800F0B1
:10261000D5FE2068816841F48041816011E0CA687C
:102620004968206800F09EFF5021206807E016E00E
:10263000CA684968206800F0A6FF6021206800F0A1
:10264000C7FE84F83D50002084F83C0070BDCA6885
:102650004968206800F086FF40212068EFE7226883
:1026600001461046EBE7704770B504460068016903
:102670004FF00005C943890715D4C168C9438907CC
:1026800011D4E91E0161012020772068806980074C
:10269000204602D0FFF7E7FF04E000F0CBF8204629
:1026A00000F05AF9257720680169C943490717D412
:1026B000C168C943490713D46FF0040101610220C6
:1026C00020772068806910F4407F204602D0FFF711
:1026D000CAFF04E000F0AEF8204600F03DF925778F
:1026E00020680169C943090716D4C168C9430907AD
:1026F00012D46FF008010161042020772068C069BE
:102700008007204602D0FFF7AEFF04E000F092F809
:10271000204600F021F9257720680169C943C906E0
:1027200017D4C168C943C90613D46FF01001016101
:10273000082020772068C06910F4407F204602D02E
:10274000FFF791FF04E000F075F8204600F004F96F
:10275000257720680169C943C90708D1C168C94301
:10276000C90704D1891E0161204600F051F9206893
:102770000169C943090609D4C168C943090605D4DA
:102780006FF0800101612046FFF7ACFD2068016910
:10279000C943490609D4C168C943490605D46FF045
:1027A00040010161204600F06DF920680169C943CC
:1027B00089060BD4C168C943890607D46FF020018C
:1027C00001612046BDE87040FFF78DBD70BD00007F
:1027D00000B585B00021009101910291039100683C
:1027E000104988421BD11048816941F04001816144
:1027F0008069694600F0400004904FF47C500090DE
:102800000220019003900948FEF7C6FE084841687F
:1028100021F0C00141F0E06141F0C001416005B02C
:1028200000BD0000002C01400010024000180140D3
:1028300000000140704770B5044690F83C000D461A
:1028400001280AD0012084F83C0042B1042A18D0A3
:10285000082A2AD00C2A4DD139E0022070BD206808
:1028600000F0BEFD2068816941F0080181612068A7
:10287000816921F004018161206881692A6911431D
:1028800011E0206800F0DCFD2068816941F40061FE
:1028900081612068816921F480618161206881699A
:1028A0002A6941EA0221816124E0206800F0FEFDEE
:1028B0002068C16941F00801C1612068C16921F047
:1028C0000401C1612068C1692A69114311E02068CF
:1028D00000F020FE2068C16941F40061C1612068F8
:1028E000C16921F48061C1612068C1692A6941EA36
:1028F0000221C161002084F83C0070BD10B50400C5
:1029000003D094F83D0010B107E0012010BD002075
:1029100084F83C00204600F01EF8022084F83D00B8
:10292000211D206800F0EAFC012084F8460084F8AC
:102930003E0084F83F0084F8400084F8410084F8A9
:10294000420084F8430084F8440084F8450084F889
:102950003D00002010BD70477047000010B50446D0
:10296000022249B104290ED0082913D094F841005D
:10297000012816D0012010BD94F83E000128F9D19D
:1029800084F83E200FE094F83F000128F2D184F84B
:102990003F2008E094F840000128EBD184F8402063
:1029A00001E084F841200122206800F0EDFC134989
:1029B0002068134A884201D0904203D1436C43F40B
:1029C00000434364206888420DD090420BD0B0F1A0
:1029D000804F08D00B49884205D00B49884202D06D
:1029E0000A49884204D1816801F00701062903D011
:1029F000016841F001010160002010BD002C014080
:102A0000003401400004004000080040000C004079
:102A100070B500681649884229D1164C2046A66830
:102A2000056916F1FF4F1BD2B6F17E5F18DC283026
:102A300030F81500A0F56160FDF71FFE3146FDF787
:102A40000DFCFDF75AFE0C4A0C4BFDF71EFD002253
:102A50000B4BFDF773FCFDF737FE05493431086079
:102A60006D1C25612068854201D10020206170BD68
:102A7000002C014000000020AE47E17A14AEEF3F89
:102A80000020AC40704770B5040004D094F83D00BD
:102A9000002510B106E0012070BD84F83C502046AE
:102AA00000F022F8242084F83D002068C16821F459
:102AB0000051C160204600F079FD2068016921F4D1
:102AC000904101612068416921F02A01416120683B
:102AD000C16841F40051C1602564202084F83D00A4
:102AE00084F83E00002070BD30B585B0002400940D
:102AF00001940294039400681449884224D1144834
:102B0000816941F480418161816901F480410491CE
:102B1000816941F00401816180690E4D00F004007B
:102B200004904FF400700090022001900320039065
:102B300069462846FEF730FD2815CDE900046946B0
:102B400028460294FEF728FD05B030BD003801404C
:102B50000010024000080140FEE701684A69D243C4
:102B600052050FD46FF480624A61002140F8301F93
:102B7000202242738173026942F0040202610173F0
:102B80000120704700207047F8B50446C06A1E4611
:102B90000D461746082807D0012805D010F5803FBC
:102BA00002D0206B122804D12068016841F48071A2
:102BB0000160134600224FF001112046009600F0FC
:102BC00057F840B120680068C00502D54FF4007086
:102BD00020640320F8BD2069B0F5804F0ED0062098
:102BE000216800EAD51040F0F000086133463A460B
:102BF0000B49204600F070F878B902E005F0FE00BD
:102C000000E0E8B221680861054933463A46891F69
:102C1000204600F061F80028DCD00120F8BD00005B
:102C20000800010070B516460D4604460DE020462A
:102C3000FFF793FF08B1012070BD681C05D0FEF7B7
:102C4000B9FD801BA84207D835B120684069C04350
:102C50004007ECD4002070BD002044F8300F202144
:102C60006173A073216941F0200121612073E2E7C3
:102C70002DE9F0471E4690460D460446C1F307472E
:102C8000DDF8209008E0701C06D0FEF793FDA0EB65
:102C90000900B0420FD876B12068012F18D08069A2
:102CA00025EA00000004000C14D000214145EAD0C0
:102CB0000020BDE8F087002044F8300F2021617328
:102CC000A073216941F02001216120730120F0E708
:102CD0004069E5E70121E9E72DE9F0479A46914689
:102CE0000E46044600254FF02008C1F3074725E0B3
:102CF00020684069C043400514D42068016841F44D
:102D00000071016021686FF480604861256384F878
:102D10003D8084F83E50206C40F00400206484F82C
:102D20003C501FE0B9F1FF3F08D0FEF743FDA0EB98
:102D30000A0149450CD8B9F1000F09D02068012FCC
:102D400013D0806926EA00000004000C0BD0CFE706
:102D500044F8305F84F80D80A573206940F02000AE
:102D6000206125730120BDE8F0874069EAE770B56E
:102D700016460D4604460DE02046FFF7EEFE08B16C
:102D8000012070BD681C05D0FEF714FD801BA84211
:102D900007D835B120684069C0430006ECD4002054
:102DA00070BD002044F8300F20216173A0732169A9
:102DB00041F0200121612073E2E700003EB50024CC
:102DC00016480094019414490294016089158160A9
:102DD0000473047502250561C9024460C161FEF7F0
:102DE000E3F808B1FDF7F0FF052000900120CDE9E0
:102DF000010469460948FEF755F808B1FDF7E4FFFC
:102E00000620CDE9000569460448FEF74BF8002886
:102E100001D0FDF7D9FF3EBD002401403C12002047
:102E2000094808B5416941F001014161406900224A
:102E300000F00100009001210B20FEF7B1FEBDE87B
:102E400008400B20FEF79EBE001002402DE9F0471F
:102E500086B000243348009401940294039481695D
:102E600041F040018161816901F040010491816973
:102E700041F004018161816901F0040104918169DB
:102E800041F0080181618069DFF89C8000F0080052
:102E90000490002220214046FEF787FCDFF88C904A
:102EA000012211464846FEF780FCDFF884A04FF46B
:102EB0008077002239465046FEF777FC0022202119
:102EC0004846FEF772FC0820CDE9000469464046FA
:102ED0000294FEF761FB102001258DE83100694660
:102EE0004046FEF759FB20200226CDE90005CDE93A
:102EF000024669464046FEF74FFB2120CDE900051A
:102F0000CDE9024669464846FEF746FB0097039620
:102F1000CDE9015469465046FEF73EFB06B0BDE8D8
:102F2000F08700000010024000180140000C014032
:102F3000000801400D4810B50B4901600C49416083
:102F400000214FF480428160C0E903124161816138
:102F5000C1610162FEF734FC002803D0BDE81040D7
:102F6000FDF732BF10BD000000580040B012002035
:102F7000801A060010B596B000240F941094119496
:102F8000129413941C2168461494FDF704F920212F
:102F900007A8FDF700F933483149C0E9001441F6AC
:102FA0001F41C0E9024180210461C0E90541FFF7EA
:102FB00059FA08B1FDF708FF4FF480500F900FA9A0
:102FC0002848FFF7E5FA08B1FDF7FEFE2548FFF7B0
:102FD00095FC08B1FDF7F8FE2020CDE9130413A9F4
:102FE0002048FFF7ABF908B1FDF7EEFE6020009036
:102FF0004FF49660CDE901040394049405940022F3
:10300000694618480694FFF716FC08B1FDF7DCFE88
:103010000422694613480194FFF70DFC08B1FDF73F
:10302000D3FE082269460F48FFF705FC08B1FDF7FB
:10303000CBFE079478200894CDE909404FF4005066
:10304000CDE90B4007A907480E94FFF74DF908B1E9
:10305000FDF7BAFE0348FFF7BBFB16B010BD00003A
:10306000002C01400413002010B586B0002417483E
:103070000094019402940394049413490594C0E9C4
:1030800000144FF4E151C0E90241802104618161E3
:10309000FFF7E8F908B1FDF797FE4FF48050009074
:1030A00069460A48FFF774FA08B1FDF78DFE202043
:1030B000CDE9040404A90548FFF740F9002801D030
:1030C000FDF782FE06B010BD000400404C13002046
:1030D0000C4810B50A4901600B494160002181602C
:1030E0000C22C160C0E904128161C161FFF7CBFC11
:1030F000002803D0BDE81040FDF766BE10BD0000FB
:10310000003801409413002000941100FEE70000F5
:103110002DE9F041154C0546002094F90060144F4C
:10312000711C804616D057F826102846FDF790F8F7
:103130001049FDF7C5F86168FDF738F847F82650E3
:10314000761C71B22170052901DB84F80080606073
:10315000BDE8F08147F82050401CC0B20528F9D3E3
:10316000656084F800802846F2E70000EC0100204A
:10317000D81300200000A040FEE710B50021AE20CB
:1031800000F050FB0021202000F04CFB002110201B
:1031900000F048FB0021B02000F044FB0021C820D3
:1031A00000F040FB0021084600F03CFB002110200D
:1031B00000F038FB0021402000F034FB002181208A
:1031C00000F030FB0021FF2000F02CFB0021A120AB
:1031D00000F028FB0021A62000F024FB0021A820FD
:1031E00000F020FB00213F2000F01CFB0021A42068
:1031F00000F018FB0021D32000F014FB002108464A
:1032000000F010FB0021D52000F00CFB0021F02085
:1032100000F008FB0021D92000F004FB002122204F
:1032200000F000FB0021DA2000F0FCFA002112205F
:1032300000F0F8FA0021DB2000F0F4FA0021202051
:1032400000F0F0FA00218D2000F0ECFA00211420AB
:1032500000F0E8FA0021BDE81040AF2000F0E2BA2B
:1032600070477047FEF736BC30B595B028216846E8
:10327000FCF791FF14210AA8FCF78DFF18210FA875
:10328000FCF789FF01210804CDE900100025029513
:1032900002240491CDE907404FF4E01009906846FC
:1032A000FEF77CFE08B172B6FEE70AA90F2081E89E
:1032B00031004FF48060CDE90D0502210AA8FEF728
:1032C00081FD08B172B6FEE74FF4004011900F94F3
:1032D0000FA8FEF701FD002801D072B6FEE715B079
:1032E00030BD70470148FFF7BFB90000041300204C
:1032F0000148FFF7B9B900004C130020F0B502688F
:103300001C4B1D4D1D4E1E4F1E4C4FF0804C9842C5
:1033100009D0A04207D0604505D0A84203D0B042F2
:1033200001D0B84204D122F0700E4A6842EA0E027F
:10333000984209D0A04207D0604505D0A84203D0EA
:10334000B04201D0B84203D122F44075CA682A4382
:103350004D6922F080022A4302608A68C2620A68CC
:103360008262984201D0A04201D109690163012122
:103370004161F0BD002C0140000400400008004005
:10338000000C00400034014010B501F01F03012182
:10339000046A99408C430462016A9A4011430162B5
:1033A00010BD10B501F01F030421046A99408C433D
:1033B0000462016A9A401143016210BD10B584682D
:1033C00042EA032224F47F440A432243826010BD70
:1033D000826822F070020A4342F007018160704760
:1033E000F0B5026A22F001020262036A426884694F
:1033F000124E24F073050C682C4323F002058B68F1
:103400002B430D4DA84201D0B04205D123F008074F
:10341000CB683B4323F00403A84201D0B04205D15E
:103420004D6922F4407215438A692A4342608461DF
:10343000496841630362F0BD002C01400034014043
:10344000F0B5026A22F010020262026A43688469DF
:103450000D6824F4E64444EA05248D6822F0200235
:1034600042EA05120F4D104EA84201D0B04206D1DB
:10347000CF6822F0800242EA071222F04002A842FE
:1034800001D0B04207D14D6923F4406343EA85037C
:103490008D6943EA85034360846149688163026200
:1034A000F0BD0000002C014000340140F0B5026A7C
:1034B00022F480720262026A4368C46922F40072D4
:1034C00024F073050C68124E2C438D6842EA0522E5
:1034D0000E4DA84201D0B04206D1CF6822F400625E
:1034E00042EA072222F48062A84201D0B04207D10A
:1034F0004D6923F4405343EA05138D6943EA0513EC
:103500004360C4614968C1630262F0BD002C0140A0
:103510000034014030B5026A22F480520262046A2B
:103520004268C3690D6823F4E64343EA05238D68C6
:1035300024F4005444EA0534084DA84202D0084D52
:10354000A84204D14D6922F4804242EA85124260C9
:10355000C36149680164046230BD0000002C014071
:103560000034014010B5036A046A24F001040462C7
:10357000846924F0F00444EA021423F00A020A43A6
:103580008461026210BD10B5036A23F01003036268
:103590008369046A23F4704343EA023224F0A003EF
:1035A00043EA01118261016210BD000070B504465A
:1035B00000680169E26821F4405111430161216909
:1035C000A0680843616908432168CA6841F20C6336
:1035D0009A430243CA6020684169A26921F440719C
:1035E000114341611E492068884202D1FEF790FCD8
:1035F00001E0FEF77DFC00EBC00101EB001260680A
:1036000064218000B2FBF0F3B3FBF1F36FF0180616
:103610007343B2FBF0F5B2FBF0F605EB8305322302
:1036200003EB0515B5FBF1F5B6FBF1F605F0F0057A
:1036300005EB0615B2FBF0F6B2FBF0F0B0FBF1F0D3
:103640006FF01802504306EB800003EB0010B0FB54
:10365000F1F0216800F00F002844886070BD000080
:1036600000380140FEE70907090E002804DB00F1DD
:10367000E02080F80014704700F00F0000F1E02017
:1036800080F8141D704702E008C8121F08C1002A04
:10369000FAD170477047002001E001C1121F002AD3
:1036A000FBD1704770B5244D08212846FEF770F80D
:1036B00040F2E73490B92046401E80B2FCD2082187
:1036C0002846FEF765F848B920211C48FEF765F842
:1036D00008212846FEF75CF80028F9D0102128467A
:1036E000FEF756F8002825D1641EA4B2FCD21021A2
:1036F0002846FEF74DF800281CD1114CE068FCF775
:10370000FCFF104A104BFCF719FEFDF739F8E0609A
:10371000D4E906010D4A0E4BFCF710FEC4E9060180
:1037200020212846FEF739F810212846FEF730F808
:103730000028F9D070BD000000180140000C0140C5
:1037400000000020FCA9F1D24D62503F2D431CEB3C
:10375000E2361A3FFEF7C6F9FFF786FDFFF776FB64
:10376000FFF75EFBFFF7B4FCFFF704FCFFF7E2FB9B
:10377000FFF724FBFFF778FCFFF7FFFC002121484F
:10378000FFF7ECF800211F48FEF716FE04211D4844
:10379000FFF7E4F804211B48FEF70EFE0821194844
:1037A000FFF7DCF808211748FEF706FE1548FEF77C
:1037B000B9FE1548FDF70AFB022214491248FDF72D
:1037C000CBFC1348FEF7AEFE104C1248203C606064
:1037D0001148FDF7CDF9104810494FF07E56C160F1
:1037E0000F494FF08F470025C0F81010FFF75AFF20
:1037F00031466068FCF7DAFC6060B842F6DB656071
:10380000F4E70000041300203C12002020000020F8
:103810004C1300206D051C430C1200200AD7233CDA
:1038200017B7D13808B5074A01B14021117050705F
:103830000A2000900223034A78210348FEF784F807
:1038400008BD0000E4010020B012002000000000CC
:103850000000000001020304060708090000000040
:103860000102030484380008000000200C0200005C
:10387000700900082C3A00080C0200201416000001
:1038800096360008B2C8852AA9033F78083108ACEB
:103890001C5A64E7101033100E810EF10E620FD324
:1038A0000F4310B21021118F11FC116812D3123C7A
:1038B00013A5130C147114D51438159815F6155357
:1038C00016AD1606175C17AF171833184F189B184C
:1038D000E5182B196F19B019EE19291A611A961AE1
:1038E000C81AF61A221B4A1B6E1B901BAD1BC81B65
:1038F000DF1BF21B021C0F1C171C1D1C1F041A17B8
:103900000C1C021CF2181AC8201A90281E4A1B22EE
:103910001BF6381A96401C291AEE4C1E6F192B19EB
:10392000E55C134F181B18AF6C18080617AD16533B
:1039300016F6801C3815D58C180C0C14A5133C13E6
:10394000D3126812FCA8180C2111B2104310D30F27
:10395000620FF1C4104E100E9E0D2E0DBD0C4C0CBE
:10396000DC0B6D0BFE0A900A230AB7094C09E30829
:103970007A081308AE074A07E70687062906CC052A
:1039800072051905C30470041F04D00384033A03AD
:10399000F402B0026F023102F601BE018901570143
:1039A0002901FD12D512B1128F1272125712401254
:1039B0002D121D1210120812021A01041A080C1AF4
:1039C0001D141A401C1A72241AB12C12FD1A29381F
:1039D0001A89401CF601314C1EB002F4023A5C1CFC
:1039E000D0031F681CC30419741CCC052980180857
:1039F000E7064A07AE0713941808E3084C09B7090D
:103A000023A8400FFE0A6D0BDC0B4C0CBD0C2E0DD9
:103A10009E0D5AD2040110320182109324F4D2FF79
:0C3A20002F20416F12833A048100000047
:0400000508000131BD
:00000001FF
